:100000000C9434000C9458000C9458000C94580034
:100010000C9458000C9458000C9458000C94580000
:100020000C9458000C9458000C9458000C945800F0
:100030000C9458000C9458000C9458000C945800E0
:100040000C9458000C9458000C9458000C945800D0
:100050000C9458000C9458000C9458000C945800C0
:100060000C9458000C94580011241FBECFEFD8E018
:10007000DEBFCDBF0E9440000C944D00F894FFCF2E
:100080008FEF84B985B18F5F85B980E090E00196EC
:0A0090008F3F2FE79207D9F7F5CF55
:10009A00EC010E945D000E945C00CE010E945E009D
:0600AA00CE010E945A0085
:0400B0000C940000AC
:0400B4000E943E0068
:0200B8000895A9
:0200BA000895A7
:0200BC000895A5
:00000001FF
